:1000000009C019C018C017C016C015C014C013C04D
:1000100055C011C011241FBECFE9CDBF10E0A0E62E
:10002000B0E0EAE2F1E002C005900D92A236B1071D
:10003000D9F74ED078C0E4CF90916000892F8170BD
:100040008195847B969589278093600090E066E295
:1000500070E058D0885F984F23E0969587952A9551
:10006000E1F70895B89A83B7816083BF089583B795
:100070008E7F83BFB898089585B7806285BF85B7A6
:10008000877E806185BF8895089585B7806285BF2A
:1000900085B7877E85BF8895089581B5806481BDC9
:1000A00081B5887D81BD0895F8DF81B5846081BD0B
:1000B0000895F3DF81B5816281BD08951F920F928B
:1000C0000FB60F9211240F900FBE0F901F9018952E
:1000D0004398479A8FB580648FBD8FB582608FBD7E
:1000E00083E086BF7894BEDFDFDFCFDFC0DFA4DF31
:1000F0008C01C0E0D0E0C017D107A9F3DADFBCDF84
:100100002196F9CF0024552704C0080E591F880FE7
:10011000991F009729F076956795B8F37105B9F79F
:0A012000802D952F0895F894FFCF6D
:02012A005B0078
:00000001FF
